:100000000C942A000C9447000C9447000C940601B1
:100010000C941A090C94ED080C9447000C949B085E
:100020000C94C4080C9472080C9449080C94200891
:100030000C9447000C94DF070C9447000C94470085
:100040000C9447000C9447000C9447000C94470014
:100050000C94470011241FBECFE5D8E0DEBFCDBF12
:1000600012E0A0E6B0E0E6E3F7E102C005900D92F1
:10007000AA31B107D9F722E0AAE1B2E001C01D928E
:10008000AC33B207E1F70E9466020C94990B0C9412
:10009000000080911A028032E1F42FEF84E39CE0AB
:1000A000215080409040E1F700C00000E1E3F2E021
:1000B000A6E3B2E085E392E02191213019F42C917E
:1000C0002F5F2C931196E817F907B1F710921A02D7
:1000D00008958F5F80931A020895809121028F5FA7
:1000E00080932102853020F40E940408C59A089567
:1000F000853039F50E9462024EEB50E060E080E00E
:100100000E943A0260E081E00E94230249EC50E044
:1001100060E081E00E943A020E941208C5982FEF29
:100120008DE399E4215080409040E1F700C0000049
:1001300081E00E945C0A1092210210928D000E94C0
:10014000620208950E940408C59A61E08DE690E07D
:100150000E94470A8CE690E00E944309089580912E
:100160008B00833049F480E690E00E94430960E010
:1001700089E490E00E94470AE0917A00F0E0EF5CA9
:10018000FD4F81E0808310921A02089590E0FC01F7
:10019000EA5CFD4F208130E0A901440F551F440F58
:1001A000551F240F351F30932B0220932A021082F3
:1001B000FC01EF5CFD4F108280918B008F5F80937C
:1001C0008B0080917A008F5F80937A008EED90E0B3
:1001D0000E940E0260E081E00E94230280912A02C8
:1001E00090912B020E94450284E20E94F00120912E
:1001F00028023091290280912A0290912B02820FCD
:10020000931F909329028093280208951F920F92C2
:100210000FB60F9211242F933F934F935F936F93D9
:100220007F938F939F93AF93BF93EF93FF93E0914F
:100230001B02F0911C02309709F00995FF91EF9194
:10024000BF91AF919F918F917F916F915F914F91EE
:100250003F912F910F900FBE0F901F901895D09A3D
:10026000D19AD29AD39AD498D598D698D798DC9A1E
:10027000DD9ADE9ADF9A0895CF92DF92EF92FF9295
:100280000F931F93CF93DF93CDB7DEB760970FB671
:10029000F894DEBF0FBECDBF80E1EEE8F0E0DE01F6
:1002A000119601900D928A95E1F78FEFA0E0B0E0F2
:1002B00041E050E000E010E06894EE24E1F8F12C19
:1002C0000F2EF3E0CF2EF02DD12C49C0D89AD99A19
:1002D000DA9ADB9A9BB36A2F70E09A010A2E02C069
:1002E000220F331F0A94E2F7209529232BBB99B3E1
:1002F00094FB222720F994FF1DC099B395FB222778
:1003000020F995FF12C099B396FB222720F996FF9A
:100310000EC029B3207830E0220F232F221F330B89
:1003200021111AC08C2D9D2D07C0CA0105C08E2D2C
:100330009F2D02C0802F912FFB01EE0FFF1FEE0FAC
:10034000FF1F8E0F9F1FE1E0F0E0EC0FFD1FE80F95
:10035000F91F8081222331F0AF5F01C0AB2FA430A1
:1003600008F4B4CF8F3FD1F360960FB6F894DEBF98
:100370000FBECDBFDF91CF911F910F91FF90EF90F6
:10038000DF90CF90089596989598EFECF7E031972D
:10039000F1F700C00000979AEFECF7E03197F1F722
:1003A00000C0000085BB8FEC97E00197F1F700C01B
:1003B00000009798EFECF7E03197F1F700C00000EC
:1003C00008958FEF84BB81B3806E81BB88E30E9468
:1003D000C3018CE00E94C30181E00E94C301089523
:1003E000969A9598EFECF7E03197F1F700C000008E
:1003F000979AEFECF7E03197F1F700C0000085BB6A
:100400008FEC97E00197F1F700C000009798EFECB0
:10041000F7E03197F1F700C0000008951F93CF93E4
:10042000DF93EC018881882351F010E00E94F001F5
:100430001F5FFE01E10FF11D80818111F7CFDF9178
:10044000CF911F910895813031F070F0823031F0FA
:10045000833039F00AC090E4960F07C094E1960FFC
:1004600004C094E5960F01C0962F892F80680E94E2
:10047000C3010895CF93DF93EA010E942302CE01C6
:100480000E940E02DF91CF910895CF93DF93CDB7F5
:10049000DEB760970FB6F894DEBF0FBECDBF4AE05F
:1004A000BE016F5F7F4F0E945C0BCE0101960E94E0
:1004B0000E0260960FB6F894DEBF0FBECDBFDF917F
:1004C000CF91089581E00E94C3010895CF93DF93F7
:1004D000CDB7DEB7A8970FB6F894DEBF0FBECDBF7D
:1004E000BE9AC19A789460E875E280E090E00E943C
:1004F000870A84B7806884BF84B7806884BF0E94FD
:10050000E1010E942F01BD9AC5988FB780688FBF07
:100510008B988A988C9A0E94120885EE90E00E942F
:100520000E02912C0F2EFDE1AF2EF2E0BF2EF02D2A
:10053000CE0101967C01DE011496BDA3ACA30F2E63
:10054000F3E82F2EF0E03F2EF02D0F2EF1E84F2E86
:10055000F0E05F2EF02DBCA1BFA3EDA1E8A7682EAF
:10056000FEA2792C42C480918C00882309F40AC42D
:100570008399D8C10E94620246EF50E060E080E0BB
:100580000E943A0260E081E00E94230243E051E0D1
:1005900060E081E00E943A02FFEF2DE389E4F15030
:1005A00020408040E1F700C000000E94620241E16B
:1005B00051E060E080E00E943A0260E081E00E9449
:1005C00023024FE151E060E081E00E943A029FEF98
:1005D000A1EEB4E09150A040B040E1F700C00000AF
:1005E0000E943C019FEC980F923008F4DEC40E94F8
:1005F00062024DE251E060E080E00E943A0260E079
:1006000081E00E9423024AE351E060E081E00E9421
:100610003A02EFEFF3ED20E3E150F0402040E1F744
:1006200000C00000C4CF80918B00882309F471C002
:100630000E94620248E451E060E080E00E943A02D9
:1006400060E081E00E94230248E551E060E081E043
:100650000E943A020E943C018333E1F780917A00C4
:10066000815080937A000E9462028CE0EEE9F0E013
:10067000DE01149601900D928A95E1F7FE017096C5
:1006800084E1DF011D928A95E9F7E0917A00F0E0BC
:10069000EE0FFF1FED57FF4F6081718143E050E087
:1006A0008FA198A50E944C0B4FA158A560E080E057
:1006B0000E943A0260E081E00E94230247E651E096
:1006C00060E081E00E943A02BFEFE3EDF0E3B15059
:1006D000E040F040E1F700C0000080918B008150C5
:1006E00080938B00E0917A00F0E0EF5CFD4F81E0B9
:1006F00080830E94A20080911D0290911E020196AB
:1007000090931E0280931D020E9412080E94AF0067
:10071000F4C00E94620285E791E00E940E0260E050
:1007200081E00E94230242E851E060E081E00E9403
:100730003A022FEF81E19AE7215080409040E1F7A3
:1007400000C000000E946202D8C0823309F0D5C008
:10075000AFEFB9E6E8E1A150B040E040E1F700C0FA
:1007600000000E94620240E951E060E080E00E94E7
:100770003A0260E081E00E94230249E951E060E032
:1007800081E00E943A02FFEF23ED80E3F150204028
:100790008040E1F700C000000E94620240E951E0A1
:1007A00060E080E00E943A0260E081E00E94230263
:1007B000062D1EA1D02EDE180E943C01D8018D937B
:1007C0008D018A3020F490E00E94450202C00E9410
:1007D000F001BFEFE9E6F8E1B150E040F040E1F7A9
:1007E00000C000006D2D81E00E9423028AE20E9479
:1007F000F0012FEF89E698E1215080409040E1F729
:1008000000C00000ACA1BDA10A171B0799F60E9409
:100810003C018D33E1F70E946202EBE7F0E05EC03D
:1008200088EA91E00E940E0260E081E00E942302CB
:1008300043EB51E060E081E00E943A020E94A20096
:1008400080911D0290911E02019690931E0280934A
:100850001D0288EC90E00E94F2070E946202712C57
:100860004CC0DC012D913C919B81D90112968C9159
:100870009817B1F2872D03C0872D01C0872DB1E0F5
:100880007B16D1F1E415F50521F580EC91E00E948D
:100890000E0260E081E00E94230249EC51E060E03A
:1008A00081E00E943A02EFEFF3ED20E3E150F040E7
:1008B0002040E1F700C000000E94620240E951E0E0
:1008C00060E080E00E943A0260E081E00E94230242
:1008D0006FCF3296E215F30581F0782ECF01A0811B
:1008E000B18139812C913213C7CF3A8111962C9165
:1008F000321709F4B6CFC2CF712C90918D00809140
:100900002002811104C09111FACF839BF8CF81E0BE
:1009100080938D000E94620280918C0081508093B0
:100920008C0027C2829919C20E94620246EF50E0F1
:1009300060E080E00E943A0260E081E00E942302D1
:1009400049ED51E060E081E00E943A028FEF9DE3C3
:10095000A9E481509040A040E1F700C000000E944F
:10096000620241E151E060E080E00E943A0260E012
:1009700081E00E9423024FE151E060E081E00E94AB
:100980003A02BFEFE1EEF4E0B150E040F040E1F7B1
:1009900000C000000E943C019FEC980F923008F4C8
:1009A00008C30E9462024DE251E060E080E00E94D4
:1009B0003A0260E081E00E9423024AE351E060E0F5
:1009C00081E00E943A022FEF83ED90E321508040B6
:1009D0009040E1F700C00000C4CFAFEFB9E6E8E116
:1009E000A150B040E040E1F700C000000E94620268
:1009F00040E951E060E080E00E943A0260E081E07E
:100A00000E94230249E951E060E081E00E943A023D
:100A1000FFEF23ED80E3F15020408040E1F700C07C
:100A200000000E94620240E951E060E080E00E9424
:100A30003A0260E081E00E9423020F2EF1E38F2E44
:100A4000F2E09F2EF02DD12C062D1EA1C02ECE1827
:100A50000E943C01D8018D938D018A3020F490E0F2
:100A60000E94450202C00E94F001BFEFE9E6F8E1F2
:100A7000B150E040F040E1F700C000006C2D81E093
:100A80000E9423028AE20E94F0012FEF89E698E19A
:100A9000215080409040E1F700C00000ACA1BDA112
:100AA0000A171B0799F60E943C018D33E1F70E945B
:100AB0006202E3E8F0E01D2D572DB40170C0DB01A8
:100AC0008C91813081F40E946202812F0E94C600C5
:100AD0000E943C018D33E1F70E94A2000E9412089F
:100AE0000E9462026AC20E94620247EE51E060E028
:100AF00080E00E943A0260E081E00E94230282EFDF
:100B000091E00E940E02BFEFE3EDF0E3B150E04050
:100B1000F040E1F700C000000E9462024EC2D9011D
:100B20008D919C912B81DC0112968C91281739F2C2
:100B3000852F03C0852F01C0852F513009F414C1C2
:100B4000133029F5752E80EC91E00E940E026D2D78
:100B500081E00E94230249EC51E06D2D81E00E946A
:100B60003A02BFEFE3EDF0E3B150E040F040E1F7CF
:100B700000C000000E94620240E951E06D2D8D2D01
:100B80000E943A026D2D81E00E9423025DCF1F5F1B
:100B900032966F5F7F4F143009F4EAC0582F9F01DF
:100BA000808191814981DC018C914813C3CF4A81B6
:100BB00011968C91481709F4B2CFBECF823309F059
:100BC000D8C0BFEFE9E6F8E1B150E040F040E1F70E
:100BD00000C000000E94620240E951E060E080E055
:100BE0000E943A0260E081E00E94230249E951E05C
:100BF00060E081E00E943A022FEF83ED90E3215004
:100C000080409040E1F700C000000E94620240E98D
:100C100051E060E080E00E943A0260E081E00E94E2
:100C20002302062D1EA1D02EDE180E943C01D80101
:100C30008D938D018A3020F490E00E94450202C01D
:100C40000E94F001BFEFE9E6F8E1B150E040F0406A
:100C5000E1F700C000006D2D81E00E9423028AE2CE
:100C60000E94F0012FEF89E698E1215080409040EA
:100C7000E1F700C00000ACA1BDA10A171B0799F65F
:100C80000E943C018D33E1F70E946202EBE7F0E045
:100C900056C088EA91E00E940E0260E081E00E9466
:100CA000230243EB51E060E081E00E943A020E949F
:100CB000A20088EC90E00E94F2070E946202712C70
:100CC00058C0DC012D913C919B81D90112968C91E9
:100CD0009817F9F2872D03C0872D01C0872DB1E049
:100CE0007B1609F443C0E415F50521F580EC91E08D
:100CF0000E940E0260E081E00E94230249EC51E074
:100D000060E081E00E943A02EFEFF3ED20E3E15072
:100D1000F0402040E1F700C000000E94620240E97C
:100D200051E060E080E00E943A0260E081E00E94D1
:100D3000230277CF3296E215F305D9F0782ECF0152
:100D4000A081B18139812C913213C6CF3A8111969D
:100D50002C91321709F4B5CFC1CF45EE50E060E0D9
:100D600080E00E943A0205C0712C03C0712C01C0C2
:100D7000752E839B3AC0829B38C0809120028823C5
:100D800031F133C083991CC00E94620285E791E073
:100D90000E940E0260E081E00E94230242E851E0DE
:100DA00060E081E00E943A028FEF91E1AAE7815072
:100DB0009040A040E1F700C000000E946202D9CF3D
:100DC00045EE50E060E080E00E943A02D2CF45EE6E
:100DD00050E060E080E00E943A02839B06C0829B64
:100DE00004C080912002882391F3809120028823FF
:100DF00009F4B9CB809120028130B9F711E08399D1
:100E000003C01093300202C01092300280913B0266
:100E100080931F0280917800909179000E942E0BA0
:100E2000019719F50E94BF0A80933502813099F429
:100E3000F50180810E94AB0A0E94BF0A80933502AF
:100E4000813079F463E070E080912802909129026A
:100E50000E94D00A06C0811104C0809130020E9415
:100E6000AB0A0E94BF0A80931F0280911F0282304A
:100E700009F054C00E94BF0A80933502813099F571
:100E800080913002813009F045C080918B000E9432
:100E9000AB0A0E94BF0A80933502813001F5E091D0
:100EA0007A00E150E0937A00F0E0EE0FFF1FED577B
:100EB000FF4F808191810E942E0B63E070E00E94C1
:100EC000D00A0E940408FFEF23E284EFF150204093
:100ED0008040E1F700C000000E9412081BC0109281
:100EE0002002579A82CF0E94BF0A80933502813038
:100EF00069F40E9404089FEFA3E2B4EF9150A04070
:100F0000B040E1F700C000000E94120810922002D9
:100F1000579A6BCF0E94BF0A80931F0280911F02D5
:100F2000833059F50E94BF0A80933502813009F55C
:100F30008BEC90E090932F0280932E0263E070E0A0
:100F40000E94D00A0E94BF0A80933502813069F462
:100F50000E940408EFEFF3E224EFE150F04020405C
:100F6000E1F700C000000E94120810922002579A78
:100F70003CCF0E94BF0A80931F0280911F028430E1
:100F800059F40E94BF0A80933502813011F4C6984B
:100F900003C0811101C0C69A10922002579A809115
:100FA0002002813009F42BCF20CF813309F0CDCB43
:100FB0003ACB813309F002CE10CD712CDACE1F92DC
:100FC0000F920FB60F9211248F9381E0809320022D
:100FD0008CB180933B0257988F910F900FBE0F906A
:100FE0001F9018951DBC1CBC23EC39E037BD26BDF5
:100FF0009C012F5F3F4F3BBD2ABD99BD88BD82E25A
:101000008FBD8BE18EBD089580E590E00E94F207D0
:101010002FEF89E698E1215080409040E1F700C031
:101020000000089588EC90E00E94F2072FEF89E617
:1010300098E1215080409040E1F700C00000089501
:101040001F920F920FB60F9211242F933F934F933D
:101050005F936F937F938F939F93AF93BF93EF9320
:10106000FF93E0912602F0912702309709F009954D
:10107000FF91EF91BF91AF919F918F917F916F9170
:101080005F914F913F912F910F900FBE0F901F9046
:1010900018951F920F920FB60F9211242F933F9322
:1010A0004F935F936F937F938F939F93AF93BF9370
:1010B000EF93FF93E0912602F0912702309709F019
:1010C0000995FF91EF91BF91AF919F918F917F9182
:1010D0006F915F914F913F912F910F900FBE0F90A5
:1010E0001F9018951F920F920FB60F9211242F93F5
:1010F0003F934F935F936F937F938F939F93AF93A0
:10110000BF93EF93FF93E0912402F0912502309773
:1011100009F00995FF91EF91BF91AF919F918F9148
:101120007F916F915F914F913F912F910F900FBEE3
:101130000F901F9018951F920F920FB60F921124C7
:101140002F933F934F935F936F937F938F939F93CF
:10115000AF93BF93EF93FF93E0912402F0912502A8
:10116000309709F00995FF91EF91BF91AF919F9151
:101170008F917F916F915F914F913F912F910F9040
:101180000FBE0F901F9018951F920F920FB60F92DF
:1011900011242F933F934F935F936F937F938F937C
:1011A0009F93AF93BF93EF93FF93E0912402F0914D
:1011B0002502309709F00995FF91EF91BF91AF910A
:1011C0009F918F917F916F915F914F913F912F915F
:1011D0000F900FBE0F901F9018951F920F920FB691
:1011E0000F9211242F933F934F935F936F937F93AD
:1011F0008F939F93AF93BF93EF93FF9380912602BA
:1012000090912702892B29F0E0912202F09123028C
:101210000995FF91EF91BF91AF919F918F917F9130
:101220006F915F914F913F912F910F900FBE0F9053
:101230001F9018951F920F920FB60F9211242F93A3
:101240003F934F935F936F937F938F939F93AF934E
:10125000BF93EF93FF93E0912202F0912302309726
:1012600009F00995FF91EF91BF91AF919F918F91F7
:101270007F916F915F914F913F912F910F900FBE92
:101280000F901F901895FC018085813009F446C0AD
:1012900020F0823009F4B8C0089583B713BE82B736
:1012A00012BE8CB71CBE89B719BE808183BF83B7BD
:1012B000887F9185892B83BF83B78F7E83BF83BF50
:1012C00083B78F7D83BF83BF8285882319F08130E8
:1012D00091F0089583B78F7B83BF83BF83B7877FE8
:1012E00083BF83BF83B7806883BF83BF89B78160B3
:1012F00089BF89BF089583B78F7B83BF83BF83B7BF
:10130000886083BF83BF83B7806883BF83BF8481C6
:101310008CBF89B7826089BF89BF08958FB51FBC14
:101320008EB51EBC8CB59DB51DBC1CBC8AB59BB5CD
:101330001BBC1ABC89B719BE808191819DBD8CBD33
:101340008EB5887F9185892B8EBD8FB58F708FBDAF
:101350008285882319F08130A1F008958FB58C7FA4
:101360008FBD8EB5877E8EBD8FB588608FBD8FBDDA
:101370008FB584608FBD8FBD89B7846089BF89BFF9
:1013800008958385882319F08130E9F008958FB599
:101390008C7F8FBD8EB588608EBD8EBD8EB58F7EE5
:1013A0008EBD8EBD8FB588608FBD8FBD8FB58460BB
:1013B0008FBD8FBD848195819BBD8ABD89B78061BA
:1013C00089BF89BF08958FB58C7F8FBD8EB588602A
:1013D0008EBD8EBD8EB58F7E8EBD8EBD8FB5886065
:1013E0008FBD8FBD8FB584608FBD8FBD848195818A
:1013F00001969BBD8ABD8481958199BD88BD89B7C1
:10140000886089BF89BF089585B515BC84B514BCB3
:1014100083B513BC89B719BE82B512BC808184BD67
:1014200085B5887F9185892B85BD85B58F7E85BDE6
:1014300085BD85B58F7D85BD85BD8285882319F0E5
:10144000813091F0089585B58F7B85BD85BD85B5CB
:10145000877F85BD85BD85B5806885BD85BD89B71C
:10146000806489BF89BF089585B58F7B85BD85BDA3
:1014700085B5886085BD85BD85B5806885BD85BD20
:10148000848183BD89B7806889BF89BF0895613031
:1014900049F018F0623059F0089590932702809334
:1014A0002602089590932502809324020895909334
:1014B0002302809322020895813069F018F082306F
:1014C000E9F0089583B713BE82B712BE8CB71CBE75
:1014D00089B719BE08958FB51FBC8EB51EBC8CB5DB
:1014E0009DB51DBC1CBC8AB59BB51BBC1ABC88B580
:1014F00099B519BC18BC89B719BE089585B515BC36
:1015000084B514BC83B513BC89B719BE0895DC013A
:10151000CB01880F991FAA1FBB1F880F991FAA1FF5
:10152000BB1F9C01AD01220F331F441F551F220F0B
:10153000331F441F551F60E072E18AE790E00E946C
:101540000C0B2150310930BD29B9539A549A579A3E
:1015500086E880BD0895CF93DF931F92CDB7DEB7A5
:101560005D9BFECF4AE0BE016F5F7F4F90E00E941F
:101570005C0B89818CB90F90DF91CF910895CF9347
:10158000DF931F92CDB7DEB75F9BFECF8CB189830F
:10159000CE0101960E942E0B0F90DF91CF910895FE
:1015A000CF92DF92EF92FF920F931F93CF93DF932F
:1015B000CDB7DEB76B01EDB6FEB62DB73EB7261B35
:1015C000370B0FB6F8943EBF0FBE2DBF0DB71EB739
:1015D0000F5F1F4F4AE0B8010E945C0B960121503B
:1015E000310933235CF0F80180E090E05D9BFECF91
:1015F00041914CB9019628173907C4F70FB6F894F2
:10160000FEBE0FBEEDBEDF91CF911F910F91FF90F7
:10161000EF90DF90CF900895A1E21A2EAA1BBB1B7A
:10162000FD010DC0AA1FBB1FEE1FFF1FA217B307AE
:10163000E407F50720F0A21BB30BE40BF50B661FC4
:10164000771F881F991F1A9469F760957095809588
:1016500090959B01AC01BD01CF010895FC01882745
:101660009927E89421912032E9F3293010F02E30A7
:10167000C8F32B3241F02D3239F4689404C00E9433
:10168000670B820F911D219120532A30C0F31EF465
:10169000909581959F4F0895FB01DC010D900020EE
:1016A000E9F711974150504028F0019000200D9229
:1016B000C9F708951C920895BB274A3031F4992345
:1016C00022F4BDE2909581959F4F0C94700B7AE0C7
:1016D000979F902D879F802D910D11240895BB27F2
:1016E000FB015527AA27880F991FAA1FA41710F0DE
:1016F000A41B83955051B9F7A05DAA3308F0A95DEA
:10170000A193009779F7B111B1931192CB010C9489
:10171000890BDC01FC01672F71917723E1F7329788
:1017200004C07C916D9370836291AE17BF07C8F3BC
:061730000895F894FFCFBC
:1017360000000000FA0000000005010000000000A3
:10174600401F0000010501011F0204F901FD01010E
:1017560002050209020D02110215020408012D2BD1
:101766002F3D23393633303835322A373431596FE5
:1017760075722049442069732000000000000000B3
:1017860000000000000000000000000000004361AF
:10179600722070617373656400446F6F72206973A1
:1017A60020636C6F73696E67206E6F772100464504
:1017B6004553203D00534D415254205041524B4910
:1017C6004E47203A440043617220697320466F7584
:1017D6006E640057656C636F6D6520557365722185
:1017E6000053656C656374206F7074696F6E0031A9
:1017F6003A477565737420323A5375620057726FB3
:101806006E67206F7074696F6E0053656C656374E4
:101816002031206F72203200507265737320332C92
:1018260020506C6561736500746F2067657420795C
:101836006F757220494400446F6F72206973204FA0
:1018460070656E210020202020536F72727920214E
:1018560021004E6F204D6F726520536C6F747300BC
:10186600456E746572204944007468656E20707216
:1018760065737320273D2700436F7272656374207A
:10188600494400446F6F72206973204F70656E0083
:1018960057726F6E672049440054797065206974E9
:1018A60020416761696E20210057656C636F6D6525
:1018B600204261636B2100436172206973206E6F61
:1018C60074004865726520210031323300333231AD
:1018D60000343536003635340031303000323030A1
:0A18E60000333030003430300000D1
:00000001FF
